8=FIX.4.2|9=79|35=A|34=1|49=CLIENT1|52=20220620-13:30:05.36884|56=SIMULADOR.ORDEM|98=0|108=30|10=176|8=FIX.4.2|9=79|35=A|34=2|49=CLIENT1|52=20220620-13:30:10.37417|56=SIMULADOR.ORDEM|98=0|108=30|10=166|8=FIX.4.2|9=79|35=A|34=3|49=CLIENT1|52=20220620-13:30:15.37925|56=SIMULADOR.ORDEM|98=0|108=30|10=176|8=FIX.4.2|9=79|35=A|34=4|49=CLIENT1|52=20220620-13:30:20.38384|56=SIMULADOR.ORDEM|98=0|108=30|10=173|8=FIX.4.2|9=79|35=A|34=5|49=CLIENT1|52=20220620-13:30:25.38940|56=SIMULADOR.ORDEM|98=0|108=30|10=177|8=FIX.4.2|9=79|35=A|34=6|49=CLIENT1|52=20220620-13:30:30.39576|56=SIMULADOR.ORDEM|98=0|108=30|10=180|8=FIX.4.2|9=79|35=A|34=7|49=CLIENT1|52=20220620-13:30:35.40281|56=SIMULADOR.ORDEM|98=0|108=30|10=171|8=FIX.4.2|9=79|35=A|34=8|49=CLIENT1|52=20220620-13:30:40.40834|56=SIMULADOR.ORDEM|98=0|108=30|10=172|8=FIX.4.2|9=79|35=A|34=9|49=CLIENT1|52=20220620-13:30:45.41578|56=SIMULADOR.ORDEM|98=0|108=30|10=184|8=FIX.4.2|9=80|35=A|34=10|49=CLIENT1|52=20220620-13:30:50.42300|56=SIMULADOR.ORDEM|98=0|108=30|10=196|8=FIX.4.2|9=80|35=A|34=11|49=CLIENT1|52=20220620-13:30:55.45271|56=SIMULADOR.ORDEM|98=0|108=30|10=212|8=FIX.4.2|9=80|35=A|34=12|49=CLIENT1|52=20220620-13:31:00.45803|56=SIMULADOR.ORDEM|98=0|108=30|10=205|8=FIX.4.2|9=80|35=A|34=13|49=CLIENT1|52=20220620-13:31:05.46393|56=SIMULADOR.ORDEM|98=0|108=30|10=216|8=FIX.4.2|9=80|35=A|34=14|49=CLIENT1|52=20220620-13:31:10.46937|56=SIMULADOR.ORDEM|98=0|108=30|10=217|8=FIX.4.2|9=80|35=A|34=15|49=CLIENT1|52=20220620-13:31:15.47449|56=SIMULADOR.ORDEM|98=0|108=30|10=222|8=FIX.4.2|9=80|35=A|34=16|49=CLIENT1|52=20220620-13:31:20.47862|56=SIMULADOR.ORDEM|98=0|108=30|10=218|8=FIX.4.2|9=80|35=A|34=17|49=CLIENT1|52=20220620-13:31:25.48326|56=SIMULADOR.ORDEM|98=0|108=30|10=220|8=FIX.4.2|9=80|35=A|34=18|49=CLIENT1|52=20220620-13:31:30.48939|56=SIMULADOR.ORDEM|98=0|108=30|10=227|8=FIX.4.2|9=80|35=A|34=19|49=CLIENT1|52=20220620-13:31:35.49720|56=SIMULADOR.ORDEM|98=0|108=30|10=222|8=FIX.4.2|9=80|35=A|34=20|49=CLIENT1|52=20220620-13:31:40.50618|56=SIMULADOR.ORDEM|98=0|108=30|10=208|8=FIX.4.2|9=80|35=A|34=21|49=CLIENT1|52=20220620-13:31:45.53427|56=SIMULADOR.ORDEM|98=0|108=30|10=215|8=FIX.4.2|9=80|35=A|34=22|49=CLIENT1|52=20220620-13:31:50.55035|56=SIMULADOR.ORDEM|98=0|108=30|10=209|8=FIX.4.2|9=80|35=A|34=23|49=CLIENT1|52=20220620-13:39:55.48393|56=SIMULADOR.ORDEM|98=0|108=30|10=232|8=FIX.4.2|9=80|35=A|34=24|49=CLIENT1|52=20220620-13:40:00.49006|56=SIMULADOR.ORDEM|98=0|108=30|10=207|8=FIX.4.2|9=80|35=A|34=25|49=CLIENT1|52=20220620-13:40:05.49547|56=SIMULADOR.ORDEM|98=0|108=30|10=223|8=FIX.4.2|9=80|35=A|34=26|49=CLIENT1|52=20220620-13:40:10.50145|56=SIMULADOR.ORDEM|98=0|108=30|10=206|8=FIX.4.2|9=80|35=A|34=27|49=CLIENT1|52=20220620-13:40:15.50816|56=SIMULADOR.ORDEM|98=0|108=30|10=217|8=FIX.4.2|9=80|35=A|34=28|49=CLIENT1|52=20220620-13:40:20.51362|56=SIMULADOR.ORDEM|98=0|108=30|10=211|8=FIX.4.2|9=80|35=A|34=29|49=CLIENT1|52=20220620-13:40:25.51970|56=SIMULADOR.ORDEM|98=0|108=30|10=222|8=FIX.4.2|9=80|35=A|34=30|49=CLIENT1|52=20220620-13:40:30.52537|56=SIMULADOR.ORDEM|98=0|108=30|10=210|8=FIX.4.2|9=80|35=A|34=31|49=CLIENT1|52=20220620-13:40:35.53102|56=SIMULADOR.ORDEM|98=0|108=30|10=205|8=FIX.4.2|9=80|35=A|34=32|49=CLIENT1|52=20220620-13:40:40.53634|56=SIMULADOR.ORDEM|98=0|108=30|10=212|8=FIX.4.2|9=80|35=A|34=33|49=CLIENT1|52=20220620-13:40:45.54390|56=SIMULADOR.ORDEM|98=0|108=30|10=218|8=FIX.4.2|9=80|35=A|34=34|49=CLIENT1|52=20220620-13:40:50.54924|56=SIMULADOR.ORDEM|98=0|108=30|10=218|8=FIX.4.2|9=80|35=A|34=35|49=CLIENT1|52=20220620-13:40:55.55443|56=SIMULADOR.ORDEM|98=0|108=30|10=221|8=FIX.4.2|9=80|35=A|34=36|49=CLIENT1|52=20220620-13:41:00.56007|56=SIMULADOR.ORDEM|98=0|108=30|10=210|8=FIX.4.2|9=80|35=A|34=37|49=CLIENT1|52=20220620-13:41:05.56613|56=SIMULADOR.ORDEM|98=0|108=30|10=219|8=FIX.4.2|9=80|35=A|34=38|49=CLIENT1|52=20220620-13:41:10.57235|56=SIMULADOR.ORDEM|98=0|108=30|10=217|8=FIX.4.2|9=80|35=A|34=39|49=CLIENT1|52=20220620-13:41:15.57740|56=SIMULADOR.ORDEM|98=0|108=30|10=224|8=FIX.4.2|9=80|35=A|34=40|49=CLIENT1|52=20220620-13:41:20.58364|56=SIMULADOR.ORDEM|98=0|108=30|10=215|8=FIX.4.2|9=80|35=A|34=41|49=CLIENT1|52=20220620-13:41:25.58941|56=SIMULADOR.ORDEM|98=0|108=30|10=222|8=FIX.4.2|9=80|35=A|34=42|49=CLIENT1|52=20220620-13:41:30.59582|56=SIMULADOR.ORDEM|98=0|108=30|10=221|8=FIX.4.2|9=80|35=A|34=43|49=CLIENT1|52=20220620-13:41:35.60136|56=SIMULADOR.ORDEM|98=0|108=30|10=214|8=FIX.4.2|9=80|35=A|34=44|49=CLIENT1|52=20220620-13:41:40.60891|56=SIMULADOR.ORDEM|98=0|108=30|10=219|8=FIX.4.2|9=80|35=A|34=45|49=CLIENT1|52=20220620-13:41:45.61446|56=SIMULADOR.ORDEM|98=0|108=30|10=222|8=FIX.4.2|9=80|35=A|34=46|49=CLIENT1|52=20220620-13:41:50.61973|56=SIMULADOR.ORDEM|98=0|108=30|10=224|8=FIX.4.2|9=80|35=A|34=47|49=CLIENT1|52=20220620-13:41:55.62611|56=SIMULADOR.ORDEM|98=0|108=30|10=220|8=FIX.4.2|9=80|35=A|34=48|49=CLIENT1|52=20220620-13:42:00.63185|56=SIMULADOR.ORDEM|98=0|108=30|10=219|8=FIX.4.2|9=131|35=D|34=49|49=CLIENT1|52=20220620-13:42:04.56621|56=SIMULADOR.ORDEM|11=2|21=1|38=2|40=2|44=2.1|54=1|55=1|59=0|60=20220620-13:41:30|10=010|8=FIX.4.2|9=80|35=A|34=50|49=CLIENT1|52=20220620-13:42:05.63822|56=SIMULADOR.ORDEM|98=0|108=30|10=215|8=FIX.4.2|9=80|35=A|34=51|49=CLIENT1|52=20220620-13:42:10.64384|56=SIMULADOR.ORDEM|98=0|108=30|10=216|8=FIX.4.2|9=80|35=A|34=52|49=CLIENT1|52=20220620-13:42:15.64940|56=SIMULADOR.ORDEM|98=0|108=30|10=220|8=FIX.4.2|9=80|35=A|34=53|49=CLIENT1|52=20220620-13:42:20.65574|56=SIMULADOR.ORDEM|98=0|108=30|10=221|8=FIX.4.2|9=80|35=A|34=54|49=CLIENT1|52=20220620-13:42:25.66036|56=SIMULADOR.ORDEM|98=0|108=30|10=221|8=FIX.4.2|9=80|35=A|34=55|49=CLIENT1|52=20220620-13:42:30.66539|56=SIMULADOR.ORDEM|98=0|108=30|10=226|8=FIX.4.2|9=80|35=A|34=56|49=CLIENT1|52=20220620-13:42:35.67119|56=SIMULADOR.ORDEM|98=0|108=30|10=227|8=FIX.4.2|9=80|35=A|34=57|49=CLIENT1|52=20220620-13:42:40.67632|56=SIMULADOR.ORDEM|98=0|108=30|10=224|8=FIX.4.2|9=80|35=A|34=58|49=CLIENT1|52=20220620-13:42:45.68141|56=SIMULADOR.ORDEM|98=0|108=30|10=226|8=FIX.4.2|9=80|35=A|34=59|49=CLIENT1|52=20220620-13:42:50.68704|56=SIMULADOR.ORDEM|98=0|108=30|10=228|8=FIX.4.2|9=80|35=A|34=60|49=CLIENT1|52=20220620-13:42:55.69339|56=SIMULADOR.ORDEM|98=0|108=30|10=230|8=FIX.4.2|9=80|35=A|34=61|49=CLIENT1|52=20220620-13:43:00.69925|56=SIMULADOR.ORDEM|98=0|108=30|10=223|8=FIX.4.2|9=80|35=A|34=62|49=CLIENT1|52=20220620-13:43:05.70419|56=SIMULADOR.ORDEM|98=0|108=30|10=219|8=FIX.4.2|9=80|35=A|34=63|49=CLIENT1|52=20220620-13:43:10.70939|56=SIMULADOR.ORDEM|98=0|108=30|10=223|8=FIX.4.2|9=80|35=A|34=64|49=CLIENT1|52=20220620-13:43:15.71423|56=SIMULADOR.ORDEM|98=0|108=30|10=218|8=FIX.4.2|9=80|35=A|34=65|49=CLIENT1|52=20220620-13:43:20.71904|56=SIMULADOR.ORDEM|98=0|108=30|10=219|8=FIX.4.2|9=80|35=A|34=66|49=CLIENT1|52=20220620-13:43:25.72419|56=SIMULADOR.ORDEM|98=0|108=30|10=227|8=FIX.4.2|9=80|35=A|34=67|49=CLIENT1|52=20220620-13:43:30.72819|56=SIMULADOR.ORDEM|98=0|108=30|10=228|8=FIX.4.2|9=80|35=A|34=68|49=CLIENT1|52=20220620-13:43:35.73359|56=SIMULADOR.ORDEM|98=0|108=30|10=234|8=FIX.4.2|9=80|35=A|34=69|49=CLIENT1|52=20220620-13:43:40.73843|56=SIMULADOR.ORDEM|98=0|108=30|10=229|8=FIX.4.2|9=80|35=A|34=70|49=CLIENT1|52=20220620-13:43:45.74418|56=SIMULADOR.ORDEM|98=0|108=30|10=225|8=FIX.4.2|9=80|35=A|34=71|49=CLIENT1|52=20220620-13:43:50.74856|56=SIMULADOR.ORDEM|98=0|108=30|10=228|8=FIX.4.2|9=80|35=A|34=72|49=CLIENT1|52=20220620-13:43:55.75349|56=SIMULADOR.ORDEM|98=0|108=30|10=232|8=FIX.4.2|9=80|35=A|34=73|49=CLIENT1|52=20220620-13:44:00.75751|56=SIMULADOR.ORDEM|98=0|108=30|10=221|8=FIX.4.2|9=80|35=A|34=74|49=CLIENT1|52=20220620-13:44:05.76320|56=SIMULADOR.ORDEM|98=0|108=30|10=220|8=FIX.4.2|9=80|35=A|34=75|49=CLIENT1|52=20220620-13:44:10.76796|56=SIMULADOR.ORDEM|98=0|108=30|10=234|8=FIX.4.2|9=80|35=A|34=76|49=CLIENT1|52=20220620-13:44:15.77321|56=SIMULADOR.ORDEM|98=0|108=30|10=225|8=FIX.4.2|9=80|35=A|34=77|49=CLIENT1|52=20220620-13:44:20.77844|56=SIMULADOR.ORDEM|98=0|108=30|10=232|8=FIX.4.2|9=80|35=A|34=78|49=CLIENT1|52=20220620-13:44:25.78383|56=SIMULADOR.ORDEM|98=0|108=30|10=237|8=FIX.4.2|9=80|35=A|34=79|49=CLIENT1|52=20220620-13:44:30.78986|56=SIMULADOR.ORDEM|98=0|108=30|10=243|8=FIX.4.2|9=80|35=A|34=80|49=CLIENT1|52=20220620-13:44:35.79584|56=SIMULADOR.ORDEM|98=0|108=30|10=235|8=FIX.4.2|9=80|35=A|34=81|49=CLIENT1|52=20220620-13:44:40.80109|56=SIMULADOR.ORDEM|98=0|108=30|10=217|8=FIX.4.2|9=80|35=A|34=82|49=CLIENT1|52=20220620-13:44:45.80784|56=SIMULADOR.ORDEM|98=0|108=30|10=232|8=FIX.4.2|9=80|35=A|34=83|49=CLIENT1|52=20220620-13:44:50.81336|56=SIMULADOR.ORDEM|98=0|108=30|10=223|8=FIX.4.2|9=80|35=A|34=84|49=CLIENT1|52=20220620-13:44:55.81885|56=SIMULADOR.ORDEM|98=0|108=30|10=238|8=FIX.4.2|9=80|35=A|34=85|49=CLIENT1|52=20220620-13:45:00.82437|56=SIMULADOR.ORDEM|98=0|108=30|10=224|8=FIX.4.2|9=80|35=A|34=86|49=CLIENT1|52=20220620-13:45:05.83042|56=SIMULADOR.ORDEM|98=0|108=30|10=223|8=FIX.4.2|9=80|35=A|34=87|49=CLIENT1|52=20220620-13:45:10.83691|56=SIMULADOR.ORDEM|98=0|108=30|10=230|8=FIX.4.2|9=80|35=A|34=88|49=CLIENT1|52=20220620-13:45:15.84405|56=SIMULADOR.ORDEM|98=0|108=30|10=230|8=FIX.4.2|9=80|35=A|34=89|49=CLIENT1|52=20220620-13:45:20.85041|56=SIMULADOR.ORDEM|98=0|108=30|10=224|8=FIX.4.2|9=80|35=A|34=90|49=CLIENT1|52=20220620-13:45:25.85678|56=SIMULADOR.ORDEM|98=0|108=30|10=237|8=FIX.4.2|9=80|35=A|34=91|49=CLIENT1|52=20220620-13:45:30.86177|56=SIMULADOR.ORDEM|98=0|108=30|10=229|8=FIX.4.2|9=80|35=A|34=92|49=CLIENT1|52=20220620-13:45:35.86812|56=SIMULADOR.ORDEM|98=0|108=30|10=231|8=FIX.4.2|9=80|35=A|34=93|49=CLIENT1|52=20220620-13:45:40.87556|56=SIMULADOR.ORDEM|98=0|108=30|10=234|8=FIX.4.2|9=80|35=A|34=94|49=CLIENT1|52=20220620-13:45:45.88169|56=SIMULADOR.ORDEM|98=0|108=30|10=241|8=FIX.4.2|9=80|35=A|34=95|49=CLIENT1|52=20220620-13:45:50.88826|56=SIMULADOR.ORDEM|98=0|108=30|10=238|8=FIX.4.2|9=80|35=A|34=96|49=CLIENT1|52=20220620-13:45:55.89223|56=SIMULADOR.ORDEM|98=0|108=30|10=236|8=FIX.4.2|9=80|35=A|34=97|49=CLIENT1|52=20220620-13:46:00.89842|56=SIMULADOR.ORDEM|98=0|108=30|10=235|8=FIX.4.2|9=80|35=A|34=98|49=CLIENT1|52=20220620-13:46:05.90384|56=SIMULADOR.ORDEM|98=0|108=30|10=234|8=FIX.4.2|9=80|35=A|34=99|49=CLIENT1|52=20220620-13:46:10.90962|56=SIMULADOR.ORDEM|98=0|108=30|10=233|8=FIX.4.2|9=81|35=A|34=100|49=CLIENT1|52=20220620-13:46:15.91518|56=SIMULADOR.ORDEM|98=0|108=30|10=012|8=FIX.4.2|9=81|35=A|34=101|49=CLIENT1|52=20220620-13:46:20.92278|56=SIMULADOR.ORDEM|98=0|108=30|10=013|8=FIX.4.2|9=81|35=A|34=102|49=CLIENT1|52=20220620-13:46:25.92834|56=SIMULADOR.ORDEM|98=0|108=30|10=017|8=FIX.4.2|9=81|35=A|34=103|49=CLIENT1|52=20220620-13:46:30.93343|56=SIMULADOR.ORDEM|98=0|108=30|10=010|8=FIX.4.2|9=81|35=A|34=104|49=CLIENT1|52=20220620-13:46:35.93959|56=SIMULADOR.ORDEM|98=0|108=30|10=029|8=FIX.4.2|9=81|35=A|34=105|49=CLIENT1|52=20220620-13:46:40.94538|56=SIMULADOR.ORDEM|98=0|108=30|10=020|8=FIX.4.2|9=81|35=A|34=106|49=CLIENT1|52=20220620-13:46:45.95178|56=SIMULADOR.ORDEM|98=0|108=30|10=027|8=FIX.4.2|9=81|35=A|34=107|49=CLIENT1|52=20220620-13:46:50.95791|56=SIMULADOR.ORDEM|98=0|108=30|10=025|8=FIX.4.2|9=81|35=A|34=108|49=CLIENT1|52=20220620-13:46:55.96241|56=SIMULADOR.ORDEM|98=0|108=30|10=022|8=FIX.4.2|9=81|35=A|34=109|49=CLIENT1|52=20220620-13:47:00.96700|56=SIMULADOR.ORDEM|98=0|108=30|10=014|8=FIX.4.2|9=81|35=A|34=110|49=CLIENT1|52=20220620-13:47:05.97330|56=SIMULADOR.ORDEM|98=0|108=30|10=011|8=FIX.4.2|9=81|35=A|34=111|49=CLIENT1|52=20220620-13:47:10.97842|56=SIMULADOR.ORDEM|98=0|108=30|10=016|8=FIX.4.2|9=81|35=A|34=112|49=CLIENT1|52=20220620-13:47:15.98537|56=SIMULADOR.ORDEM|98=0|108=30|10=024|8=FIX.4.2|9=81|35=A|34=113|49=CLIENT1|52=20220620-13:47:20.99151|56=SIMULADOR.ORDEM|98=0|108=30|10=014|8=FIX.4.2|9=81|35=A|34=114|49=CLIENT1|52=20220620-13:47:25.99740|56=SIMULADOR.ORDEM|98=0|108=30|10=024|8=FIX.4.2|9=81|35=A|34=115|49=CLIENT1|52=20220620-13:47:31.00369|56=SIMULADOR.ORDEM|98=0|108=30|10=011|8=FIX.4.2|9=81|35=A|34=116|49=CLIENT1|52=20220620-13:47:35.00881|56=SIMULADOR.ORDEM|98=0|108=30|10=015|8=FIX.4.2|9=81|35=A|34=117|49=CLIENT1|52=20220620-13:47:40.01448|56=SIMULADOR.ORDEM|98=0|108=30|10=012|8=FIX.4.2|9=81|35=A|34=118|49=CLIENT1|52=20220620-13:47:45.02001|56=SIMULADOR.ORDEM|98=0|108=30|10=004|8=FIX.4.2|9=81|35=A|34=119|49=CLIENT1|52=20220620-13:47:50.02538|56=SIMULADOR.ORDEM|98=0|108=30|10=016|8=FIX.4.2|9=81|35=A|34=120|49=CLIENT1|52=20220620-13:47:55.03196|56=SIMULADOR.ORDEM|98=0|108=30|10=014|8=FIX.4.2|9=81|35=A|34=121|49=CLIENT1|52=20220620-13:48:00.03740|56=SIMULADOR.ORDEM|98=0|108=30|10=001|8=FIX.4.2|9=81|35=A|34=122|49=CLIENT1|52=20220620-13:48:05.04369|56=SIMULADOR.ORDEM|98=0|108=30|10=015|8=FIX.4.2|9=81|35=A|34=123|49=CLIENT1|52=20220620-13:48:10.04940|56=SIMULADOR.ORDEM|98=0|108=30|10=007|8=FIX.4.2|9=81|35=A|34=124|49=CLIENT1|52=20220620-13:48:15.05634|56=SIMULADOR.ORDEM|98=0|108=30|10=014|8=FIX.4.2|9=81|35=A|34=125|49=CLIENT1|52=20220620-13:48:20.06260|56=SIMULADOR.ORDEM|98=0|108=30|10=007|8=FIX.4.2|9=81|35=A|34=126|49=CLIENT1|52=20220620-14:04:23.55238|56=SIMULADOR.ORDEM|98=0|108=30|10=013|8=FIX.4.2|9=81|35=A|34=127|49=CLIENT1|52=20220620-14:04:28.55732|56=SIMULADOR.ORDEM|98=0|108=30|10=018|8=FIX.4.2|9=81|35=A|34=128|49=CLIENT1|52=20220620-14:04:33.56371|56=SIMULADOR.ORDEM|98=0|108=30|10=015|8=FIX.4.2|9=81|35=A|34=129|49=CLIENT1|52=20220620-14:04:38.57028|56=SIMULADOR.ORDEM|98=0|108=30|10=021|8=FIX.4.2|9=81|35=A|34=130|49=CLIENT1|52=20220620-14:04:43.57584|56=SIMULADOR.ORDEM|98=0|108=30|10=016|8=FIX.4.2|9=81|35=A|34=131|49=CLIENT1|52=20220620-14:04:48.58074|56=SIMULADOR.ORDEM|98=0|108=30|10=017|8=FIX.4.2|9=81|35=A|34=132|49=CLIENT1|52=20220620-14:04:53.58600|56=SIMULADOR.ORDEM|98=0|108=30|10=009|8=FIX.4.2|9=81|35=A|34=133|49=CLIENT1|52=20220620-14:04:58.59242|56=SIMULADOR.ORDEM|98=0|108=30|10=018|8=FIX.4.2|9=81|35=A|34=134|49=CLIENT1|52=20220620-14:05:03.59841|56=SIMULADOR.ORDEM|98=0|108=30|10=015|8=FIX.4.2|9=81|35=A|34=135|49=CLIENT1|52=20220620-14:05:08.60438|56=SIMULADOR.ORDEM|98=0|108=30|10=015|8=FIX.4.2|9=81|35=A|34=136|49=CLIENT1|52=20220620-14:05:13.61022|56=SIMULADOR.ORDEM|98=0|108=30|10=002|8=FIX.4.2|9=81|35=A|34=137|49=CLIENT1|52=20220620-14:05:18.61647|56=SIMULADOR.ORDEM|98=0|108=30|10=021|8=FIX.4.2|9=81|35=A|34=138|49=CLIENT1|52=20220620-14:05:23.62395|56=SIMULADOR.ORDEM|98=0|108=30|10=019|8=FIX.4.2|9=126|35=D|34=139|49=CLIENT1|52=20220620-14:05:23.66309|56=SIMULADOR.ORDEM|11=AS|21=1|38=2|40=1|54=1|55=1|59=0|60=20220620-14:04:29|10=117|8=FIX.4.2|9=81|35=A|34=140|49=CLIENT1|52=20220620-14:05:28.65443|56=SIMULADOR.ORDEM|98=0|108=30|10=014|8=FIX.4.2|9=81|35=A|34=141|49=CLIENT1|52=20220620-14:05:33.77244|56=SIMULADOR.ORDEM|98=0|108=30|10=013|8=FIX.4.2|9=81|35=A|34=142|49=CLIENT1|52=20220620-14:05:38.77957|56=SIMULADOR.ORDEM|98=0|108=30|10=030|8=FIX.4.2|9=81|35=A|34=143|49=CLIENT1|52=20220620-14:05:43.78574|56=SIMULADOR.ORDEM|98=0|108=30|10=023|8=FIX.4.2|9=81|35=A|34=144|49=CLIENT1|52=20220620-14:05:48.79235|56=SIMULADOR.ORDEM|98=0|108=30|10=024|8=FIX.4.2|9=81|35=A|34=145|49=CLIENT1|52=20220620-14:05:53.80022|56=SIMULADOR.ORDEM|98=0|108=30|10=007|8=FIX.4.2|9=81|35=A|34=146|49=CLIENT1|52=20220620-14:05:58.80623|56=SIMULADOR.ORDEM|98=0|108=30|10=020|8=FIX.4.2|9=81|35=A|34=147|49=CLIENT1|52=20220620-14:06:03.81218|56=SIMULADOR.ORDEM|98=0|108=30|10=013|8=FIX.4.2|9=81|35=A|34=148|49=CLIENT1|52=20220620-14:06:08.81738|56=SIMULADOR.ORDEM|98=0|108=30|10=026|8=FIX.4.2|9=81|35=A|34=149|49=CLIENT1|52=20220620-14:06:13.82484|56=SIMULADOR.ORDEM|98=0|108=30|10=022|8=FIX.4.2|9=81|35=A|34=150|49=CLIENT1|52=20220620-14:06:18.83266|56=SIMULADOR.ORDEM|98=0|108=30|10=018|8=FIX.4.2|9=81|35=A|34=151|49=CLIENT1|52=20220620-14:06:23.83971|56=SIMULADOR.ORDEM|98=0|108=30|10=018|8=FIX.4.2|9=81|35=A|34=152|49=CLIENT1|52=20220620-14:06:28.84546|56=SIMULADOR.ORDEM|98=0|108=30|10=023|8=FIX.4.2|9=81|35=A|34=153|49=CLIENT1|52=20220620-14:06:33.85172|56=SIMULADOR.ORDEM|98=0|108=30|10=016|8=FIX.4.2|9=81|35=A|34=154|49=CLIENT1|52=20220620-14:06:38.85734|56=SIMULADOR.ORDEM|98=0|108=30|10=026|8=FIX.4.2|9=81|35=A|34=155|49=CLIENT1|52=20220620-14:06:43.86348|56=SIMULADOR.ORDEM|98=0|108=30|10=025|8=FIX.4.2|9=81|35=A|34=156|49=CLIENT1|52=20220620-14:06:48.87359|56=SIMULADOR.ORDEM|98=0|108=30|10=034|8=FIX.4.2|9=81|35=A|34=157|49=CLIENT1|52=20220620-14:06:53.88119|56=SIMULADOR.ORDEM|98=0|108=30|10=026|8=FIX.4.2|9=81|35=A|34=158|49=CLIENT1|52=20220620-14:06:58.88741|56=SIMULADOR.ORDEM|98=0|108=30|10=033|8=FIX.4.2|9=81|35=A|34=159|49=CLIENT1|52=20220620-14:07:03.89085|56=SIMULADOR.ORDEM|98=0|108=30|10=027|8=FIX.4.2|9=81|35=A|34=160|49=CLIENT1|52=20220620-14:07:08.89648|56=SIMULADOR.ORDEM|98=0|108=30|10=029|8=FIX.4.2|9=81|35=A|34=161|49=CLIENT1|52=20220620-14:07:13.90252|56=SIMULADOR.ORDEM|98=0|108=30|10=009|8=FIX.4.2|9=81|35=A|34=162|49=CLIENT1|52=20220620-14:07:18.90815|56=SIMULADOR.ORDEM|98=0|108=30|10=020|8=FIX.4.2|9=81|35=A|34=163|49=CLIENT1|52=20220620-14:07:23.91429|56=SIMULADOR.ORDEM|98=0|108=30|10=019|8=FIX.4.2|9=81|35=A|34=164|49=CLIENT1|52=20220620-14:07:28.92034|56=SIMULADOR.ORDEM|98=0|108=30|10=018|8=FIX.4.2|9=81|35=A|34=165|49=CLIENT1|52=20220620-14:07:33.92538|56=SIMULADOR.ORDEM|98=0|108=30|10=024|8=FIX.4.2|9=81|35=A|34=166|49=CLIENT1|52=20220620-14:07:38.93170|56=SIMULADOR.ORDEM|98=0|108=30|10=023|8=FIX.4.2|9=81|35=A|34=167|49=CLIENT1|52=20220620-14:07:43.93634|56=SIMULADOR.ORDEM|98=0|108=30|10=025|8=FIX.4.2|9=81|35=A|34=168|49=CLIENT1|52=20220620-15:44:07.39326|56=SIMULADOR.ORDEM|98=0|108=30|10=026|8=FIX.4.2|9=81|35=A|34=169|49=CLIENT1|52=20220620-15:44:12.42512|56=SIMULADOR.ORDEM|98=0|108=30|10=014|8=FIX.4.2|9=81|35=A|34=170|49=CLIENT1|52=20220620-15:44:17.43051|56=SIMULADOR.ORDEM|98=0|108=30|10=010|8=FIX.4.2|9=81|35=A|34=171|49=CLIENT1|52=20220620-15:44:22.43740|56=SIMULADOR.ORDEM|98=0|108=30|10=012|8=FIX.4.2|9=81|35=A|34=172|49=CLIENT1|52=20220620-15:44:27.44389|56=SIMULADOR.ORDEM|98=0|108=30|10=028|8=FIX.4.2|9=81|35=A|34=173|49=CLIENT1|52=20220620-15:44:32.44958|56=SIMULADOR.ORDEM|98=0|108=30|10=027|8=FIX.4.2|9=127|35=D|34=174|49=CLIENT1|52=20220620-15:44:35.65432|56=SIMULADOR.ORDEM|11=22|21=1|38=1|40=1|54=1|55=AC|59=3|60=20220620-15:44:11|10=153|8=FIX.4.2|9=81|35=A|34=175|49=CLIENT1|52=20220620-15:44:37.45643|56=SIMULADOR.ORDEM|98=0|108=30|10=026|8=FIX.4.2|9=81|35=A|34=176|49=CLIENT1|52=20220620-15:44:42.46340|56=SIMULADOR.ORDEM|98=0|108=30|10=018|8=FIX.4.2|9=81|35=A|34=177|49=CLIENT1|52=20220620-15:44:47.46939|56=SIMULADOR.ORDEM|98=0|108=30|10=038|8=FIX.4.2|9=81|35=A|34=178|49=CLIENT1|52=20220620-15:44:52.47575|56=SIMULADOR.ORDEM|98=0|108=30|10=032|8=FIX.4.2|9=81|35=A|34=179|49=CLIENT1|52=20220620-15:44:57.48171|56=SIMULADOR.ORDEM|98=0|108=30|10=031|8=FIX.4.2|9=81|35=A|34=180|49=CLIENT1|52=20220620-15:45:02.48728|56=SIMULADOR.ORDEM|98=0|108=30|10=022|8=FIX.4.2|9=81|35=A|34=181|49=CLIENT1|52=20220620-15:45:07.49334|56=SIMULADOR.ORDEM|98=0|108=30|10=022|8=FIX.4.2|9=81|35=A|34=182|49=CLIENT1|52=20220620-15:45:12.49844|56=SIMULADOR.ORDEM|98=0|108=30|10=025|8=FIX.4.2|9=81|35=A|34=183|49=CLIENT1|52=20220620-15:45:17.50498|56=SIMULADOR.ORDEM|98=0|108=30|10=028|8=FIX.4.2|9=81|35=A|34=184|49=CLIENT1|52=20220620-15:45:22.51044|56=SIMULADOR.ORDEM|98=0|108=30|10=013|8=FIX.4.2|9=81|35=A|34=185|49=CLIENT1|52=20220620-15:45:27.51512|56=SIMULADOR.ORDEM|98=0|108=30|10=019|8=FIX.4.2|9=81|35=A|34=186|49=CLIENT1|52=20220620-15:45:32.52141|56=SIMULADOR.ORDEM|98=0|108=30|10=015|8=FIX.4.2|9=81|35=A|34=187|49=CLIENT1|52=20220620-15:45:37.52769|56=SIMULADOR.ORDEM|98=0|108=30|10=037|8=FIX.4.2|9=81|35=A|34=188|49=CLIENT1|52=20220620-15:45:42.53402|56=SIMULADOR.ORDEM|98=0|108=30|10=019|8=FIX.4.2|9=81|35=A|34=189|49=CLIENT1|52=20220620-15:45:47.53970|56=SIMULADOR.ORDEM|98=0|108=30|10=035|8=FIX.4.2|9=81|35=A|34=190|49=CLIENT1|52=20220620-15:45:52.54431|56=SIMULADOR.ORDEM|98=0|108=30|10=016|8=FIX.4.2|9=81|35=A|34=191|49=CLIENT1|52=20220620-15:45:57.55052|56=SIMULADOR.ORDEM|98=0|108=30|10=022|8=FIX.4.2|9=81|35=A|34=192|49=CLIENT1|52=20220620-15:46:02.55645|56=SIMULADOR.ORDEM|98=0|108=30|10=022|8=FIX.4.2|9=81|35=A|34=193|49=CLIENT1|52=20220620-15:46:07.56162|56=SIMULADOR.ORDEM|98=0|108=30|10=023|8=FIX.4.2|9=81|35=A|34=194|49=CLIENT1|52=20220620-15:46:12.56796|56=SIMULADOR.ORDEM|98=0|108=30|10=033|8=FIX.4.2|9=81|35=A|34=195|49=CLIENT1|52=20220620-15:46:17.57341|56=SIMULADOR.ORDEM|98=0|108=30|10=026|8=FIX.4.2|9=81|35=A|34=196|49=CLIENT1|52=20220620-15:46:22.57979|56=SIMULADOR.ORDEM|98=0|108=30|10=040|8=FIX.4.2|9=81|35=A|34=197|49=CLIENT1|52=20220620-15:46:27.58548|56=SIMULADOR.ORDEM|98=0|108=30|10=039|8=FIX.4.2|9=81|35=A|34=198|49=CLIENT1|52=20220620-15:46:32.58984|56=SIMULADOR.ORDEM|98=0|108=30|10=040|8=FIX.4.2|9=81|35=A|34=199|49=CLIENT1|52=20220620-15:46:37.59694|56=SIMULADOR.ORDEM|98=0|108=30|10=045|8=FIX.4.2|9=81|35=A|34=200|49=CLIENT1|52=20220620-15:46:42.60417|56=SIMULADOR.ORDEM|98=0|108=30|10=009|8=FIX.4.2|9=81|35=A|34=201|49=CLIENT1|52=20220620-15:46:47.60969|56=SIMULADOR.ORDEM|98=0|108=30|10=027|8=FIX.4.2|9=81|35=A|34=202|49=CLIENT1|52=20220620-15:46:52.61537|56=SIMULADOR.ORDEM|98=0|108=30|10=016|8=FIX.4.2|9=81|35=A|34=203|49=CLIENT1|52=20220620-15:46:57.62036|56=SIMULADOR.ORDEM|98=0|108=30|10=017|8=FIX.4.2|9=81|35=A|34=204|49=CLIENT1|52=20220620-15:47:02.62645|56=SIMULADOR.ORDEM|98=0|108=30|10=015|8=FIX.4.2|9=81|35=A|34=205|49=CLIENT1|52=20220620-15:47:07.63307|56=SIMULADOR.ORDEM|98=0|108=30|10=017|8=FIX.4.2|9=81|35=A|34=206|49=CLIENT1|52=20220620-15:47:12.64046|56=SIMULADOR.ORDEM|98=0|108=30|10=015|8=FIX.4.2|9=81|35=A|34=207|49=CLIENT1|52=20220620-15:47:17.64785|56=SIMULADOR.ORDEM|98=0|108=30|10=031|8=FIX.4.2|9=81|35=A|34=208|49=CLIENT1|52=20220620-15:47:22.65324|56=SIMULADOR.ORDEM|98=0|108=30|10=018|8=FIX.4.2|9=81|35=A|34=209|49=CLIENT1|52=20220620-15:47:27.65953|56=SIMULADOR.ORDEM|98=0|108=30|10=032|8=FIX.4.2|9=81|35=A|34=210|49=CLIENT1|52=20220620-15:47:32.66613|56=SIMULADOR.ORDEM|98=0|108=30|10=014|8=FIX.4.2|9=81|35=A|34=211|49=CLIENT1|52=20220620-15:47:37.67169|56=SIMULADOR.ORDEM|98=0|108=30|10=027|8=FIX.4.2|9=81|35=A|34=212|49=CLIENT1|52=20220620-15:47:42.67809|56=SIMULADOR.ORDEM|98=0|108=30|10=025|8=FIX.4.2|9=81|35=A|34=213|49=CLIENT1|52=20220620-15:47:47.68387|56=SIMULADOR.ORDEM|98=0|108=30|10=033|8=FIX.4.2|9=81|35=A|34=214|49=CLIENT1|52=20220620-15:47:52.68932|56=SIMULADOR.ORDEM|98=0|108=30|10=026|8=FIX.4.2|9=81|35=A|34=215|49=CLIENT1|52=20220620-15:47:57.69541|56=SIMULADOR.ORDEM|98=0|108=30|10=029|8=FIX.4.2|9=81|35=A|34=216|49=CLIENT1|52=20220620-15:48:02.69986|56=SIMULADOR.ORDEM|98=0|108=30|10=034|8=FIX.4.2|9=81|35=A|34=217|49=CLIENT1|52=20220620-15:48:07.70436|56=SIMULADOR.ORDEM|98=0|108=30|10=022|8=FIX.4.2|9=81|35=A|34=218|49=CLIENT1|52=20220620-15:48:12.71064|56=SIMULADOR.ORDEM|98=0|108=30|10=017|8=FIX.4.2|9=81|35=A|34=219|49=CLIENT1|52=20220620-15:48:17.71637|56=SIMULADOR.ORDEM|98=0|108=30|10=029|8=FIX.4.2|9=81|35=A|34=220|49=CLIENT1|52=20220620-15:48:22.72246|56=SIMULADOR.ORDEM|98=0|108=30|10=014|8=FIX.4.2|9=81|35=A|34=221|49=CLIENT1|52=20220620-15:48:27.72834|56=SIMULADOR.ORDEM|98=0|108=30|10=023|8=FIX.4.2|9=81|35=A|34=222|49=CLIENT1|52=20220620-15:48:32.73338|56=SIMULADOR.ORDEM|98=0|108=30|10=020|8=FIX.4.2|9=81|35=A|34=223|49=CLIENT1|52=20220620-15:48:37.74073|56=SIMULADOR.ORDEM|98=0|108=30|10=023|8=FIX.4.2|9=81|35=A|34=224|49=CLIENT1|52=20220620-15:48:42.74785|56=SIMULADOR.ORDEM|98=0|108=30|10=030|8=FIX.4.2|9=81|35=A|34=225|49=CLIENT1|52=20220620-15:48:47.75426|56=SIMULADOR.ORDEM|98=0|108=30|10=029|8=FIX.4.2|9=81|35=A|34=226|49=CLIENT1|52=20220620-15:48:52.75985|56=SIMULADOR.ORDEM|98=0|108=30|10=036|8=FIX.4.2|9=81|35=A|34=227|49=CLIENT1|52=20220620-15:48:57.76472|56=SIMULADOR.ORDEM|98=0|108=30|10=034|8=FIX.4.2|9=81|35=A|34=228|49=CLIENT1|52=20220620-15:49:02.77184|56=SIMULADOR.ORDEM|98=0|108=30|10=027|8=FIX.4.2|9=81|35=A|34=229|49=CLIENT1|52=20220620-15:49:07.77834|56=SIMULADOR.ORDEM|98=0|108=30|10=035|8=FIX.4.2|9=81|35=A|34=230|49=CLIENT1|52=20220620-15:49:12.78468|56=SIMULADOR.ORDEM|98=0|108=30|10=027|8=FIX.4.2|9=81|35=A|34=231|49=CLIENT1|52=20220620-15:49:17.79136|56=SIMULADOR.ORDEM|98=0|108=30|10=026|8=FIX.4.2|9=81|35=A|34=232|49=CLIENT1|52=20220620-15:49:22.79636|56=SIMULADOR.ORDEM|98=0|108=30|10=028|8=FIX.4.2|9=81|35=A|34=233|49=CLIENT1|52=20220620-15:49:27.80096|56=SIMULADOR.ORDEM|98=0|108=30|10=026|8=FIX.4.2|9=81|35=A|34=234|49=CLIENT1|52=20220620-15:49:32.80645|56=SIMULADOR.ORDEM|98=0|108=30|10=023|