8=FIX.4.2|9=78|35=A|34=1|49=CLIENT|52=20220619-02:01:56.71720|56=SIMULADOR.ORDEM|98=0|108=30|10=124|8=FIX.4.2|9=78|35=A|34=2|49=CLIENT|52=20220619-02:02:01.72207|56=SIMULADOR.ORDEM|98=0|108=30|10=117|8=FIX.4.2|9=78|35=A|34=3|49=CLIENT|52=20220619-02:02:06.72819|56=SIMULADOR.ORDEM|98=0|108=30|10=132|8=FIX.4.2|9=78|35=A|34=4|49=CLIENT|52=20220619-02:02:11.73321|56=SIMULADOR.ORDEM|98=0|108=30|10=118|8=FIX.4.2|9=78|35=A|34=5|49=CLIENT|52=20220619-02:02:16.73913|56=SIMULADOR.ORDEM|98=0|108=30|10=131|8=FIX.4.2|9=78|35=A|34=6|49=CLIENT|52=20220619-02:02:21.74491|56=SIMULADOR.ORDEM|98=0|108=30|10=130|8=FIX.4.2|9=78|35=A|34=7|49=CLIENT|52=20220619-02:02:26.75113|56=SIMULADOR.ORDEM|98=0|108=30|10=128|8=FIX.4.2|9=78|35=A|34=8|49=CLIENT|52=20220619-02:02:31.75861|56=SIMULADOR.ORDEM|98=0|108=30|10=135|8=FIX.4.2|9=78|35=A|34=9|49=CLIENT|52=20220619-02:02:36.76476|56=SIMULADOR.ORDEM|98=0|108=30|10=144|8=FIX.4.2|9=79|35=A|34=10|49=CLIENT|52=20220619-02:02:41.77059|56=SIMULADOR.ORDEM|98=0|108=30|10=179|8=FIX.4.2|9=79|35=A|34=11|49=CLIENT|52=20220619-02:02:46.77721|56=SIMULADOR.ORDEM|98=0|108=30|10=181|8=FIX.4.2|9=79|35=A|34=12|49=CLIENT|52=20220619-02:02:51.78333|56=SIMULADOR.ORDEM|98=0|108=30|10=178|8=FIX.4.2|9=79|35=A|34=13|49=CLIENT|52=20220619-02:02:56.79071|56=SIMULADOR.ORDEM|98=0|108=30|10=184|8=FIX.4.2|9=79|35=A|34=14|49=CLIENT|52=20220619-02:03:01.79509|56=SIMULADOR.ORDEM|98=0|108=30|10=182|8=FIX.4.2|9=79|35=A|34=15|49=CLIENT|52=20220619-02:03:06.79949|56=SIMULADOR.ORDEM|98=0|108=30|10=196|8=FIX.4.2|9=79|35=A|34=16|49=CLIENT|52=20220619-02:03:11.80548|56=SIMULADOR.ORDEM|98=0|108=30|10=180|8=FIX.4.2|9=79|35=A|34=17|49=CLIENT|52=20220619-02:03:16.81184|56=SIMULADOR.ORDEM|98=0|108=30|10=183|8=FIX.4.2|9=79|35=A|34=18|49=CLIENT|52=20220619-02:03:21.81913|56=SIMULADOR.ORDEM|98=0|108=30|10=180|8=FIX.4.2|9=79|35=A|34=19|49=CLIENT|52=20220619-02:03:26.82439|56=SIMULADOR.ORDEM|98=0|108=30|10=190|8=FIX.4.2|9=79|35=A|34=20|49=CLIENT|52=20220619-02:03:31.83082|56=SIMULADOR.ORDEM|98=0|108=30|10=173|8=FIX.4.2|9=79|35=A|34=21|49=CLIENT|52=20220619-02:03:36.83723|56=SIMULADOR.ORDEM|98=0|108=30|10=181|8=FIX.4.2|9=79|35=A|34=22|49=CLIENT|52=20220619-02:03:41.84319|56=SIMULADOR.ORDEM|98=0|108=30|10=180|8=FIX.4.2|9=79|35=A|34=23|49=CLIENT|52=20220619-02:03:46.85072|56=SIMULADOR.ORDEM|98=0|108=30|10=183|8=FIX.4.2|9=79|35=A|34=24|49=CLIENT|52=20220619-02:03:51.85612|56=SIMULADOR.ORDEM|98=0|108=30|10=180|8=FIX.4.2|9=79|35=A|34=25|49=CLIENT|52=20220619-02:03:56.86240|56=SIMULADOR.ORDEM|98=0|108=30|10=184|8=FIX.4.2|9=79|35=A|34=26|49=CLIENT|52=20220619-02:04:01.86702|56=SIMULADOR.ORDEM|98=0|108=30|10=179|8=FIX.4.2|9=79|35=A|34=27|49=CLIENT|52=20220619-02:04:06.87498|56=SIMULADOR.ORDEM|98=0|108=30|10=198|8=FIX.4.2|9=79|35=A|34=28|49=CLIENT|52=20220619-02:04:11.88001|56=SIMULADOR.ORDEM|98=0|108=30|10=176|8=FIX.4.2|9=79|35=A|34=29|49=CLIENT|52=20220619-02:04:16.88510|56=SIMULADOR.ORDEM|98=0|108=30|10=187|8=FIX.4.2|9=79|35=A|34=30|49=CLIENT|52=20220619-02:04:21.89040|56=SIMULADOR.ORDEM|98=0|108=30|10=174|8=FIX.4.2|9=79|35=A|34=31|49=CLIENT|52=20220619-02:04:26.89518|56=SIMULADOR.ORDEM|98=0|108=30|10=190|8=FIX.4.2|9=79|35=A|34=32|49=CLIENT|52=20220619-02:04:31.90055|56=SIMULADOR.ORDEM|98=0|108=30|10=175|8=FIX.4.2|9=79|35=A|34=33|49=CLIENT|52=20220619-02:04:36.90761|56=SIMULADOR.ORDEM|98=0|108=30|10=185|8=FIX.4.2|9=79|35=A|34=34|49=CLIENT|52=20220619-02:04:41.91263|56=SIMULADOR.ORDEM|98=0|108=30|10=180|8=FIX.4.2|9=79|35=A|34=35|49=CLIENT|52=20220619-02:04:46.91875|56=SIMULADOR.ORDEM|98=0|108=30|10=195|8=FIX.4.2|9=79|35=A|34=36|49=CLIENT|52=20220619-02:04:51.92438|56=SIMULADOR.ORDEM|98=0|108=30|10=188|8=FIX.4.2|9=79|35=A|34=37|49=CLIENT|52=20220619-02:04:56.93032|56=SIMULADOR.ORDEM|98=0|108=30|10=185|8=FIX.4.2|9=79|35=A|34=38|49=CLIENT|52=20220619-02:05:01.93512|56=SIMULADOR.ORDEM|98=0|108=30|10=180|8=FIX.4.2|9=79|35=A|34=39|49=CLIENT|52=20220619-02:05:06.94070|56=SIMULADOR.ORDEM|98=0|108=30|10=186|8=FIX.4.2|9=79|35=A|34=40|49=CLIENT|52=20220619-02:05:11.94565|56=SIMULADOR.ORDEM|98=0|108=30|10=183|8=FIX.4.2|9=79|35=A|34=41|49=CLIENT|52=20220619-02:05:16.95114|56=SIMULADOR.ORDEM|98=0|108=30|10=180|8=FIX.4.2|9=79|35=A|34=42|49=CLIENT|52=20220619-02:05:21.95654|56=SIMULADOR.ORDEM|98=0|108=30|10=186|8=FIX.4.2|9=79|35=A|34=43|49=CLIENT|52=20220619-02:05:26.96314|56=SIMULADOR.ORDEM|98=0|108=30|10=186|8=FIX.4.2|9=79|35=A|34=44|49=CLIENT|52=20220619-02:05:31.96930|56=SIMULADOR.ORDEM|98=0|108=30|10=187|8=FIX.4.2|9=79|35=A|34=45|49=CLIENT|52=20220619-02:05:36.97519|56=SIMULADOR.ORDEM|98=0|108=30|10=197|8=FIX.4.2|9=79|35=A|34=46|49=CLIENT|52=20220619-02:05:41.98123|56=SIMULADOR.ORDEM|98=0|108=30|10=186|8=FIX.4.2|9=79|35=A|34=47|49=CLIENT|52=20220619-02:05:46.98671|56=SIMULADOR.ORDEM|98=0|108=30|10=200|8=FIX.4.2|9=79|35=A|34=48|49=CLIENT|52=20220619-02:05:51.99328|56=SIMULADOR.ORDEM|98=0|108=30|10=197|8=FIX.4.2|9=79|35=A|34=49|49=CLIENT|52=20220619-02:05:56.99925|56=SIMULADOR.ORDEM|98=0|108=30|10=206|8=FIX.4.2|9=79|35=A|34=50|49=CLIENT|52=20220619-02:06:01.00341|56=SIMULADOR.ORDEM|98=0|108=30|10=163|8=FIX.4.2|9=79|35=A|34=51|49=CLIENT|52=20220619-02:06:06.00879|56=SIMULADOR.ORDEM|98=0|108=30|10=185|8=FIX.4.2|9=79|35=A|34=52|49=CLIENT|52=20220619-02:06:11.01503|56=SIMULADOR.ORDEM|98=0|108=30|10=167|